:020000040800F2
:10000000680A002045010008CD090008A90700087A
:10001000C909000867060008C717000800000000AB
:100020000000000000000000000000006D12000849
:100030006B06000800000000E10D0008AD13000889
:100040005F0100085F0100085F0100085F01000810
:100050005F0100085F0100085F0100085F01000800
:100060005F0100085F0100085F0100085F010008F0
:100070005F0100085F0100085F0100085F010008E0
:100080005F0100085F0100085F0100085F010008D0
:100090005F0100085F0100085F0100085F010008C0
:1000A0005F0100085F0100085F0100085F010008B0
:1000B0005F0100085F0100085F0100085F010008A0
:1000C0005F0100085F0100085F0100085F01000890
:1000D0005F0100085F010008BD140008BD1500089D
:1000E0005F0100085F0100085F0100085F01000870
:1000F0005F0100085F0100085F0100085F01000860
:100100005F0100085F0100085F0100085F0100084F
:100110005F0100085F0100085F0100085F0100083F
:100120005F0100085F0100085F0100085F0100082F
:10013000DFF80CD000F04AFA00480047551B0008D1
:10014000680A00200648804706480047FEE7FEE7A9
:10015000FEE7FEE7FEE7FEE7FEE7FEE7FEE7FEE777
:10016000B1130008310100082DE9FE4F804681EAF5
:100170000300C00F0C46009021F0004123F0004521
:10018000B8EB0200A94105D24046214690461C46E4
:100190000B46024623F00040104347D0270DC7F31B
:1001A0000A00C3F30A510290401A019040286BDA0A
:1001B000C3F3130040F4801B0098924620B1002343
:1001C000D2EB030A63EB0B0B01985946C0F14002D6
:1001D000504600F045F906460D4650465946019AEC
:1001E00000F04DF910EB08006141002487EA11523C
:1001F00084EAE7731A4340D0009A62B3019A012A55
:100200004FEA075215DC001B61EB02014FF0004280
:1002100002EA0752CDE90042001C41F58011324646
:100220002B4600F084F903B0BDE8F08F404621462C
:10023000F9E7001B61EB0201001C41F58013001877
:100240005B412018A2F5001747EB030140EAD57087
:10025000B6196D4111E06D084FEA360645EAC075E2
:100260004FEA0752001B61EB0201001C41F58011AF
:1002700049084FEA30000019514132462B4603B07D
:10028000BDE8F04F00F044B900980122400000237F
:10029000D0EB020263EBE073009821464FEAE07472
:1002A000B8EB000061EB0401E9E783F000435BE792
:1002B00081F0004158E72DE9FE4F81EA030404F084
:1002C000004421F0004100944FF0000B23F0004364
:1002D00050EA01045ED052EA03045BD0C3F30A542F
:1002E000C1F30A552C44A4F2F3340194A0FB025448
:1002F000C1F3130141F48011C3F3130343F48013DA
:1003000001FB024400FB034E840A970A44EA81542D
:1003100047EA8357A4FB076802958D0A05FB07850A
:100320004FEA932C04FB0C542705029D4FEA065814
:1003300047EA1637B5EB08056EEB070C870E920EF1
:1003400047EA811742EA8312A7FB0201B6EB0B01D1
:1003500064EB00042B0D43EA0C335E1844EB1C5095
:10036000DA465146E7FB0201C5F313044FEA0B33AB
:1003700043EA14534FEA0432019C43EA0603A4F112
:100380000C040294009CCDE900B400F0D0F803B056
:10039000BDE8F08F00200146F9E7962300221146C0
:1003A00000F088B800F0004220F00040C10DC0F31A
:1003B000160040F400007F2901DA002070479629DA
:1003C00003DCC1F19601C84001E096398840002A5B
:1003D000F4D04042704700F0004230F000400AD0B4
:1003E000C10D01F56071C0F3160042EA0151C20867
:1003F00040071143704700200146704701F0004359
:1004000030B421F0004150EA010206D00A0DA2F5F5
:100410006072C1F31301002A02DC30BC0020704777
:10042000440F44EAC104C100E01830BC00EBC250E4
:1004300000F037B830B50B460146002020220124D9
:1004400009E021FA02F59D4205D303FA02F5491BA2
:1004500004FA02F52844151EA2F10102F1DC30BDB8
:10046000202A04DB203A00FA02F100207047914074
:10047000C2F1200320FA03F3194390407047202A69
:1004800006DBCB17203A41FA02F043EAE07306E0BC
:1004900041FA02F3D040C2F12002914008431946CC
:1004A00070470029A8BF7047401C490008BF20F0D2
:1004B0000100704710B4B0FA80FC00FA0CF050EA6A
:1004C000010404BF10BC704749B1CCF1200421FAEB
:1004D00004F411FA0CF118BF012121430843A3EBE6
:1004E0000C01CB1D4FEA00614FEA102042BF0020F3
:1004F00010BC704700EBC35010440029A4BF10BCCF
:100500007047401C490008BF20F0010010BC704734
:1005100010B5141E73F1000408DA401C41F100010B
:1005200092185B411A4301D120F0010010BD2DE962
:10053000F04D92469B4611B1B1FA81F202E0B0FA59
:1005400080F220329046FFF78BFF04460F4640EAC8
:100550000A0041EA0B0153465A46084313D011469C
:1005600053EA010019D0C8F14002504600F040F8AB
:1005700005460E46504659464246FFF771FF08436E
:1005800005D0012004E020463946BDE8F08D00206A
:10059000054346EAE0762C4337430A986305E40AAC
:1005A000A0EB08000022FD0A44EA47540A3002D5B5
:1005B00000200146E9E7010510196941DDE9084518
:1005C00000196941BDE8F04DA2E70000064C074D57
:1005D00006E0E06840F0010394E807009847103413
:1005E000AC42F6D3FFF7A8FDBC240008DC240008C9
:1005F000202A04DB203A21FA02F00021704721FA78
:1006000002F3D040C2F120029140084319467047DE
:1006100070B58C1810F8015B15F0070301D110F8C4
:10062000013B2A1106D110F8012B03E010F8016BF1
:1006300001F8016B5B1EF9D12B0705D40023521E74
:100640000DD401F8013BFAE710F8013BCB1A921CDC
:1006500003E013F8015B01F8015B521EF9D5A142DA
:10066000D8D3002070BD00BFFEE7704701460020D0
:10067000002204E08B5C034498B2531CDAB2052AD2
:10068000F8DD0B7A034498B270472DE9F041024639
:1006900000250026002000230024002791F803C035
:1006A0000CF00F0591F803C00CF0100CBCF1000F1A
:1006B00003D091F802C04CEA050591F800C0BCF1E6
:1006C000000F31D0146800202BE04FF0010C0CFA21
:1006D00000F3B1F800C00CEA03069E4220D183006B
:1006E0004FF00F0C0CFA03F7BC4305FA03FC4CEA7D
:1006F000040491F803C0BCF1280F06D14FF0010C9F
:100700000CFA00FCC2F814C00AE091F803C0BCF176
:10071000480F05D14FF0010C0CFA00FCC2F810C0D4
:10072000401C0828D1D31460B1F800C0BCF1FF0F01
:1007300034DD546800202EE000F1080C4FF0010871
:1007400008FA0CF3B1F800C00CEA03069E4221D16E
:1007500083004FF00F0C0CFA03F7BC4305FA03FCBF
:100760004CEA040491F803C0BCF1280F05D100F154
:10077000080C08FA0CF8C2F8148091F803C0BCF118
:10078000480F07D100F1080C4FF0010808FA0CF8E7
:10079000C2F81080401C0828CED35460BDE8F08118
:1007A000416170470161704700BFFEE710B500204E
:1007B0000A49086000F06EFC00200949C1F8B40144
:1007C000142001F01BF9012004490860022001F007
:1007D00015F900200249C1F8B80110BDB801224244
:1007E0000000224208B50121102000F0C9FB4FF49F
:1007F000C040ADF8000010208DF8030003208DF8F4
:10080000020069460448FFF740FF012003490860E1
:100810000349C1F8B40108BD00100140B8012242EB
:100820000000224210B500200A49086000F032FCA6
:1008300001200949C1F8B401052001F0DFF80120C9
:1008400004490860052001F0D9F800200249C1F8E8
:10085000B80110BDB80122420000224270B5054621
:10086000002400F007FC002616E000200F49086075
:10087000052001F0C3F801200D49C1F8B801600658
:10088000040E0A488438006808B1601CC4B2052010
:1008900001F0B4F8701CC6B2082EE6DB15B9FFF7FC
:1008A000C1FF01E0FFF782FF204670BDB801224280
:1008B0000000224270B5044600F0ECFB00200F4916
:1008C0000860002517E0E0090C49091F0860600670
:1008D000040E052001F092F801200949C1F8B80181
:1008E000052001F08BF8002004490860052001F084
:1008F00085F8681CC5B2082DE5DB70BDB801224241
:100900000000224210B500F0C5FB01200A49086032
:100910000A49C1F8B801042001F070F80020064926
:100920000860042001F06AF800200449C1F8B80109
:10093000042001F063F810BDB401224200002242FD
:1009400010B500F0A7FB00200A4908600A49C1F869
:10095000B401042001F052F801200649086001F0BA
:100960004DF801200449C1F8B401042001F046F813
:1009700010BD0000B80122420000224210B5002440
:1009800000F078FB01200E49086001F037F80120E3
:100990000C49C1F8B80101F031F807E0601CC4B29D
:1009A000FA2C03DDFFF7CCFF012010BD044880388E
:1009B00000680028F2D10249091D086000BFF4E771
:1009C000B40122420000224200BFFEE7704708B592
:1009D0004FF4A06000F046F827208DF800000120B9
:1009E0008DF801008DF802008DF80300684600F0D4
:1009F00001F808BD70B5002100230F22C47804B3AC
:100A0000154C246804F4E064C4F5E064210AC1F1E3
:100A10000403CA40447804FA03F184781440214363
:100A200009010E4C0678A155047804F01F05012435
:100A3000AC4005786D11AD0005F1E025C5F8004129
:100A400009E0047804F01F050124AC40044D067849
:100A5000761145F8264070BD0CED00E000E400E0A2
:100A600080E100E002490143024A11607047000042
:100A70000000FA050CED00E070B5002419E004F167
:100A8000B001C8B2002100F069F90021022000F095
:100A900065F90021102000F061F9002505E0012131
:100AA000002000F05BF9681CC5B2802DF7DB601CEC
:100AB000C4B2082CE3DB70BD2DE9F05F06460F469B
:100AC00090461C46DDF828A04FF0000BE11704EB20
:100AD0005171C910A4EBC10131B92046E11704EBF3
:100AE0005171C1F3C70506E02046E11704EB5171CF
:100AF000C910491CCDB23D4615E02946304600F0EC
:100B0000C1F8B1460BE059460BF1010B1AF8010090
:100B1000012100F023F909F1010000F0FF09C145AE
:100B2000F1DB681CC5B2A542E7DBBDE8F09F000021
:100B300008B50121082000F023FA4FF43340ADF846
:100B4000000010208DF8030003208DF80200694694
:100B50004B48FFF79AFD4FF433414948FFF722FE17
:100B60004FF400714648FFF71DFE642000F028FF97
:100B70004FF400714248FFF713FEC82000F020FF39
:100B80004FF400713E48FFF70DFE0021AE2000F04B
:100B9000E5F80021022000F0E1F80021102000F02B
:100BA000DDF80021402000F0D9F80021812000F07C
:100BB000D5F80021CF2000F0D1F80021A12000F0CD
:100BC000CDF80021C82000F0C9F80021A62000F0CF
:100BD000C5F80021A82000F0C1F800213F2000F056
:100BE000BDF80021D32000F0B9F80021084600F03C
:100BF000B5F80021D52000F0B1F80021802000F0E8
:100C0000ADF80021D92000F0A9F80021F12000F072
:100C1000A5F80021DA2000F0A1F80021122000F050
:100C20009DF80021DB2000F099F80021402000F021
:100C300095F80021202000F091F80021022000F01A
:100C40008DF800218D2000F089F80021142000F09B
:100C500085F80021A42000F081F80021A62000F0F2
:100C60007DF80021AF2000F079F80021AF2000F0DE
:100C700075F8FFF701FF0021084600F003F808BDF2
:100C8000000C014070B504460D4605F1B001C8B234
:100C9000002100F063F8102141EA1410002100F057
:100CA0005DF804F00F0141F00100002100F056F85A
:100CB00070BD00002DE9F04107460E469046002524
:100CC0000024A8F12000C5B27F2F02DD0027B01C50
:100CD000C6B231463846FFF7D5FF002408E004EBE2
:100CE00005110F4A505C012100F038F8601CC4B2B5
:100CF000082CF4DB701CC1B23846FFF7C3FF002498
:100D000009E004EB05110831054A505C012100F0AF
:100D100025F8601CC4B2082CF3DBBDE8F0810000AC
:100D2000CC1E00082DE9F04104460F46154600266A
:100D30000EE0AA5D39462046FFF7BCFF04F108002B
:100D4000C4B2782C02DD0024B81CC7B2701CC6B235
:100D5000A85D0028EDD1BDE8F081000070B5044623
:100D60000E462EB14FF480711C48FFF71BFD04E0C6
:100D70004FF480711948FFF713FD4FF48051174865
:100D8000FFF70EFD00251BE04FF400511348FFF75D
:100D900007FD04F0800028B14FF400410F48FFF731
:100DA00001FD04E04FF400410C48FFF7F9FC4FF45B
:100DB00000510A48FFF7F6FC6006040E681CC5B235
:100DC000082DE1DB4FF480510448FFF7EBFC4FF4B2
:100DD00080710248FFF7E6FC70BD0000000C014086
:100DE0007047000070B548A202210020FFF79AFF6B
:100DF00047A206210020FFF795FF474800880128F9
:100E000051D1002240F22551444800F042FC4448B0
:100E1000FFF72CFC434908804148C0794049897953
:100E200000EB0120404908803E480088098888423C
:100E30002AD13B48407802282BD1394880783B4959
:100E400008703748C07848703548007938490870CC
:100E500033484079487000F003FF3648827836A165
:100E6000364800F0D9FC354A02212D20FFF75AFF01
:100E70003048C27830A1314800F0CEFC2F4A06211C
:100E80002D20FFF74FFF04E02DA202213C20FFF7A9
:100E900049FF012240F22551204800F0FAFB0020D2
:100EA0001D49088004E029A202213C20FFF73AFFF7
:100EB00000F062F9044600F003F905462046FFF70A
:100EC00071FA1C4908702846FFF76CFA19494870F6
:100ED000084602781EA1204800F09EFC1E4A02210E
:100EE0005520FFF71FFF1348427819A11A4800F058
:100EF00093FC194A06215520FFF714FF0F220D49D4
:100F0000164800F062FC70BD504D32353A000000CA
:100F1000504D31303A0000001003002000480040DE
:100F2000E70500200A0300200C030020080300202E
:100F300006030020D805002025640000B805002025
:100F40004572722044617461210000004E6F000000
:100F500025645E4300000000980500200044004026
:100F600029B1064AD2690243044BDA6104E0034A1C
:100F7000D2698243014BDA617047000000100240E1
:100F800029B1064A92690243044B9A6104E0034A7C
:100F900092698243014B9A61704700000010024041
:100FA00030B500210022002400232D4D6D6805F08E
:100FB0000C0121B1042905D0082923D105E0294DD0
:100FC000056022E0274D05601FE0254D6D6805F4A2
:100FD0007012234D6D6805F48034022505EB9242B2
:100FE0001CB9214D554305600BE01D4D6D6805F49E
:100FF00000351DB11C4D5543056002E0194D5543A8
:10100000056002E0174D056000BF00BF144D6D681C
:1010100005F0F0010909154D6B5C0568DD40456080
:101020000F4D6D6805F4E061090A104D6B5C456871
:10103000DD4085600A4D6D6805F46051C90A0B4DAD
:101040006B5C4568DD40C560054D6D6805F4404149
:10105000890B074D6B5CC568B5FBF3F5056130BDC9
:101060000010024000127A0000093D00000000203C
:101070001000002008B54FF40050ADF80000042027
:101080008DF8030069460248FFF7FFFA08BD00002B
:101090000010014008B501211020FFF771FF4FF447
:1010A0000050ADF8000014208DF8030003208DF8E7
:1010B000020069460148FFF7E8FA08BD0010014048
:1010C0002DE9F04F87B04FF0000AFFF71BFC80209E
:1010D000FFF7F0FBFFF752FC8346F520FFF7EAFB32
:1010E000FFF74CFC834600BF642000F069FCFFF76B
:1010F00009FC8120FFF7DEFB0AF101001FFA80FAEC
:10110000FFF73CFC8346BAF1640F00D102E0BBF16B
:10111000000FE9D100BF0120FFF7A0FB0546012029
:10112000FFF79CFB06460020FFF798FBFFF708FC43
:1011300046EA052929F003094846FFF72EF90190F0
:10114000FFF749F9094A0A4BCDE90201FFF7B3F865
:101150000022084BCDE90401FFF7A7F80746FFF787
:101160004DF90446204607B0BDE8F08F7644CF77AE
:1011700001405F3F000018402DE9F04F87B04FF06D
:10118000000AFFF7BFFB8020FFF794FBFFF7F6FB99
:101190008346F320FFF78EFBFFF7F0FB834600BF8B
:1011A000642000F00DFCFFF7ADFB8120FFF782FB10
:1011B0000AF101001FFA80FAFFF7E0FB8346BAF557
:1011C0007A7F00D102E0BBF1000FE9D100BF01201E
:1011D000FFF744FB05460120FFF740FB06460020D1
:1011E000FFF73CFBFFF7ACFB46EA052929F00309B2
:1011F0004846FFF7D2F80190FFF7EDF8094A0A4B8D
:10120000CDE90201FFF757F8084A094BCDE904017F
:10121000FFF74BF80746FFF7F1F80446204607B002
:10122000BDE8F08F619FC6DE07F7653FCDCCCCCC23
:10123000CC6C474010B5FFF7D5FA00F003F8044630
:10124000204610BD10B50024FFF75CFB8020FFF79F
:1012500031FBFFF793FB0446FE20FFF72BFBFFF764
:101260008DFB0446FFF76CFB204610BD704710B5A0
:1012700000F002F810BD00000CB5002001900090B5
:101280003348006840F480303149086000BF30487E
:10129000006800F4003000900198401C0190009814
:1012A00018B90198B0F5A06FF1D12948006800F491
:1012B000003010B10120009001E000200090009863
:1012C000012843D12348006840F0100021490860FC
:1012D0000846006820F0030008600846006840F0F7
:1012E000020008601A48406819494860084640688A
:1012F00048600846406840F480604860084640689E
:1013000020F47C1048600846406840F4E8104860CB
:101310000846006840F08070086000BF0C48006814
:1013200000F000700028F9D00948406820F0030060
:10133000074948600846406840F00200486000BF26
:101340000348406800F00C000828F9D10CBD0000EB
:10135000001002400020024030B50146B1F1807F0C
:1013600001D3012030BD21F07F40401E4FF0E0222C
:10137000506150170F22002807DA13071D0E094B82
:1013800000F00F04241F1D5503E013071C0E064B2D
:101390001C5400BF00204FF0E02290610720106134
:1013A0000020DFE718ED00E000E400E070470000F7
:1013B00010B51348006840F0010011490860084664
:1013C0004068104908400E494860084600680E49C8
:1013D00008400B4908600846006820F48020086037
:1013E0000846406820F4FE0048604FF41F00886003
:1013F000FFF73DFF4FF000600449086010BD00009A
:10140000001002400000FFF8FFFFF6FE08ED00E0CC
:1014100000B587B001210420FFF7B2FD0121480487
:10142000FFF79EFD0420ADF8180018208DF81B0072
:1014300003208DF81A0006A91E48FFF726F9082098
:10144000ADF8180004208DF81B0006A91948FFF715
:101450001CF901208DF8070026208DF804000120DA
:101460008DF8050003208DF8060001208DF8070097
:1014700001A8FFF7BFFA4FF4E13002900020ADF869
:101480000C00ADF80E00ADF81000ADF814000C2003
:10149000ADF8120002A9084800F020F9012240F23C
:1014A0002551054800F0F5F80121034800F0AEF899
:1014B00007B000BD000801400044004010B540F2F4
:1014C0002551154800F0BBF820B3134800F072F91D
:1014D000C4B2124812490988445411490988405C31
:1014E000412803D101200F49087008E00B480C493E
:1014F0000988405C432802D100200A490870084846
:101500000088401C0649088008460088022801D14E
:101510000020088010BD0000004400402706002085
:10152000940500209605002000B585B00121082013
:10153000FFF726FD01218804FFF712FD4FF48060BC
:10154000ADF8100018208DF8130003208DF812005C
:1015500004A91848FFF799F84FF40060ADF810009F
:1015600004208DF8130004A91248FFF78EF8FFF746
:101570002EFA4FF4165000900020ADF80400ADF89C
:101580000600ADF80800ADF80C000C20ADF80A001C
:101590006946094800F0A2F8FFF719FA012240F263
:1015A0002551054800F075F80121034800F02EF898
:1015B00005B000BD000C01400048004010B540F2ED
:1015C00025510E4800F03BF8B0B10C4800F0F2F89D
:1015D000C4B20B480B49098844540A480088401C8F
:1015E0000849088008460088092805D101200649D5
:1015F000088000200349088010BD0000004800401A
:10160000E70500200E0300201003002021B182898D
:1016100042F40052828104E082894DF6FF731A4041
:101620008281704702460020B1F5007F00D100BFE3
:1016300013880B400BB1012000E00020704770B50B
:101640000246002400230025002040F66A16B1421D
:1016500000D100BFC1F3421501F01F03012606FAB5
:1016600003F3012D02D19689334006E0022D02D109
:10167000168A334001E0968A33400C12012606FA9E
:1016800004F41688344013B10CB1012000E00020AE
:1016900070BDF0B50346002400260025002040F66A
:1016A0006A17B94200D100BF1846C1F3421401F0D5
:1016B0001F06012707FA06F5012C01D10C3004E0C2
:1016C000022C01D1103000E014301AB107682F430A
:1016D000076002E00768AF430760F0BD2DE9F047FF
:1016E00086B005460E460024A24600BFA14600274C
:1016F000B08900B100BF2F462C8A4CF6FF70044021
:10170000F08804432C82AC894EF6F3100440B08874
:1017100031890843718908430443AC81AC8A4FF690
:10172000FF400440B0890443AC8201A8FFF738FCB5
:101730001F48874202D1DDF810A001E0DDF80CA0BF
:10174000A88900F4004040B10AEBCA0000EB0A107F
:1017500031684900B0FBF1F807E00AEBCA0000EB82
:101760000A1031688900B0FBF1F86420B8FBF0F092
:1017700004012009642101FB1089A88900F40040BC
:1017800040B1322000EBC900B0FBF1F000F00700DF
:10179000044308E0322000EB09106421B0FBF1F0B3
:1017A00000F00F0004432C8106B0BDE8F087000074
:1017B0000038014001468888C0F308007047C1F333
:1017C00008028280704700BFFEE72DE9F04107461E
:1017D0000D461646002405E0295D384600F00DF858
:1017E000601CC4B2B442F7DB00BF40213846FFF7AB
:1017F00019FF0028F9D0BDE8F08170B504460D4608
:1018000029462046FFF7DBFF00BF80212046FFF777
:1018100009FF0028F9D070BD0FB4084B10B504A91A
:1018200002AA039800F01CF8044602A9002000F068
:10183000C1F8204610BC5DF814FB0000B519000883
:1018400002E008C8121F08C1002AFAD17047704789
:10185000002001E001C1121F002AFBD170470000E7
:101860002DE9FF4F89B09B460446002506E0252858
:101870000BD05A460B999047641C6D1C20780028A9
:10188000F5D10DB02846BDE8F08F0027B8460122FB
:10189000474900E0074314F8013F203B02FA03F0F8
:1018A0000842F7D120782E2819D114F8010F47F0FB
:1018B00004072A280ED06FF02F022078A0F1300103
:1018C00009290CD808EB880102EB410100EB010863
:1018D000641CF2E70A98641C50F8048B0A90207884
:1018E0000028CED0642808D0692806D075281ED0DC
:1018F0005A460B9990476D1C58E00A994FF00A0917
:1019000001C90A91002802DA40422D2102E039057E
:1019100004D52B218DF82010012103E0F90704D014
:101920002021F7E78A4608AE0DE00021FAE70A9980
:101930004FF00A0901C90A91F7E74946FEF77AFD17
:10194000303106F8011D0028F7D1ADEB060000F19B
:101950002009780701D44FF00108C84502DDA8EB43
:10196000090000E000208046002706E008A85A464B
:10197000C05D0B9990476D1C7F1C5745F6DB04E05A
:1019800030205A460B9990476D1CB8F10001A8F120
:101990000108F5DC05E016F8010B5A460B99904753
:1019A0006D1CB9F10001A9F10109F4DC641C65E7C3
:1019B000092801000A68531C0B6010707047000072
:1019C00070B504460C48FFF7C7FC002508E000BFCF
:1019D0004FF0E020006900F480300028F8D06D1C42
:1019E000A542F4D34FF0E020006920F001004FF051
:1019F000E021086170BD00004019010070B5044687
:101A00004820FFF7A9FC002508E000BF4FF0E020C8
:101A1000006900F480300028F8D06D1CA542F4D392
:101A20004FF0E020006920F001004FF0E021086154
:101A300070BD00000EB5AA208DF8000001208DF8C1
:101A4000010000208DF802008DF803008DF80400DD
:101A50008DF80500BB208DF808000020174908808C
:101A60009DF800009DF8011008449DF802100844FC
:101A70009DF8031008449DF8041008449DF80510D3
:101A800008449DF8081008440C4908800888C117CC
:101A900000EB1161090A8DF8061008490888C11782
:101AA00000EB11610912A0EB0121C9B28DF80710FA
:101AB000092269460248FFF788FE0EBD0403002094
:101AC000004800400EB5AA208DF8000002208DF8D5
:101AD000010000208DF802008DF803008DF804004D
:101AE0008DF80500BB208DF80800002017490880FC
:101AF0009DF800009DF8011008449DF8021008446C
:101B00009DF8031008449DF8041008449DF8051042
:101B100008449DF8081008440C4908800888C1173B
:101B200000EB1161090A8DF8061008490888C117F1
:101B300000EB11610912A0EB0121C9B28DF8071069
:101B4000092269460248FFF740FE0EBD040300204B
:101B50000048004008B5FFF75BFCFFF7E5FCFEF727
:101B6000E7FFFFF767FB40211748FFF75BFD4021C8
:101B70001648FFF757FDFEF77FFF15480723582249
:101B8000002100900846FEF797FF124808238022A4
:101B9000072100900020FEF78FFF4FF47A60FFF7D7
:101BA0000FFFFFF747FF6420FFF70AFFFEF764FF10
:101BB00009E000F011F8FFF785FF4FF4FA70FFF726
:101BC000FFFEFFF70FF9F4E7004400400048004033
:101BD000140000208402002008B51B48007801286A
:101BE00029D11A4801238022002100900846FEF7DF
:101BF00063FFC820FFF7E4FE15480123802200217F
:101C000000900846FEF758FFC820FFF7D9FE11489C
:101C100001238022002100900846FEF74DFFC820D6
:101C2000FFF7CEFE0C4801238022002100900846D9
:101C3000FEF742FF07E009480123802200210090BF
:101C40000846FEF739FF08BD960500201403002062
:101C500094030020140400209404002014050020A4
:101C60000D4A52780C4B1B7802EB032291B20B4ABF
:101C700052780A4B1B7802EB032290B2B1F57A7FBF
:101C800001DB40F2E73140F2DC52904200DD1046C9
:101C9000034B9970D870704706030020080300209A
:101CA000D80500200000000000000000002F000008
:101CB00000000700070000147F147F1400242A7F0F
:101CC0002A1200626408132300364955225000008E
:101CD0000503000000001C224100000041221C00FE
:101CE0000014083E08140008083E0808000000A080
:101CF000600000080808080800006060000000207C
:101D000010080402003E5149453E0000427F400059
:101D1000004261514946002141454B3100181412DF
:101D20007F10002745454539003C4A4949300001AC
:101D30007109050300364949493600064949291EFB
:101D4000000036360000000056360000000814225D
:101D5000410000141414141400004122140800025D
:101D60000151090600324959513E007C1211127C82
:101D7000007F49494936003E41414122007F4141AF
:101D8000221C007F49494941007F09090901003EA1
:101D90004149497A007F0808087F0000417F4100DF
:101DA000002040413F01007F08142241007F404055
:101DB0004040007F020C027F007F0408107F003E3D
:101DC0004141413E007F09090906003E4151215E23
:101DD000007F091929460046494949310001017F20
:101DE0000101003F4040403F001F2040201F003FB6
:101DF0004038403F00631408146300070870080768
:101E000000615149454300007F41410000552A557A
:101E10002A55000041417F000004020102040040F5
:101E20004040404000000102040000205454547817
:101E3000007F484444380038444444200038444437
:101E4000487F00385454541800087E0901020018D5
:101E5000A4A4A47C007F080404780000447D400012
:101E6000004080847D00007F102844000000417FF6
:101E70004000007C04180478007C080404780038D2
:101E80004444443800FC242424180018242418FC5A
:101E9000007C0804040800485454542000043F44C3
:101EA0004020003C4040207C001C2040201C003C86
:101EB0004030403C004428102844001CA0A0A07CD6
:101EC000004464544C44141414141414000000000E
:101ED000000000000000000000000000000000F80A
:101EE00000000000000000333000000000100C066D
:101EF000100C0600000000000000000040C0784008
:101F0000C0784000043F04043F040400007088FCD3
:101F100008300000001820FF211E00003C3C00FE9D
:101F2000FE0000000000007F7F003C3C00F00888BD
:101F3000700000001E2123241927211010160E0006
:101F4000000000000000000000000000000000E0B1
:101F500018040200000000071820400000020418C6
:101F6000E00000000040201807000000404080F022
:101F7000804040000202010F01020200000000F058
:101F8000000000000101011F01010100000000002C
:101F90000000000080B070000000000000000000A1
:101FA000000000000001010101010101000000002A
:101FB0000000000000000060600000000000000061
:101FC00080601804006018060100000000FEFE0694
:101FD0000606FEFE007F7F6060607F7F000000FEDF
:101FE000FE0000000000007F7F0000000086868663
:101FF0008686FEFE007F7F61616161610086868664
:102000008686FEFE0061616161617F7F00FEFE00E9
:1020100000FEFE0000030303037F7F0300FEFE8635
:10202000868686860061616161617F7F00FEFE8633
:1020300086868686007F7F6161617F7F0006060657
:102040000606FEFE0000000000007F7F00FEFE8608
:102050008686FEFE007F7F6161617F7F00FEFE86D7
:102060008686FEFE0061616161617F7F0000000085
:1020700030303000000000003030300000000080C0
:1020800000000000000080600000000000008040B0
:1020900020100800000102040810200000000000C9
:1020A00000000000007EFFC3C3C3C3C300081020AC
:1020B0004080000000201008040201000070480861
:1020C0000808F0000000003036010000C030C828C9
:1020D000E810E0000718272423140B00000000007C
:1020E0000000000000F8FE3737FEF80008F8888886
:1020F00088700000203F202020110E0000F8FC0610
:1021000006060606001F3F606060606008F8080869
:102110000810E000203F202020100F0008F88888D9
:10212000E8081000203F20202320180008F88888A5
:10213000E8081000203F20000300000000FEFE061B
:1021400086868686007F7F7071717F7F08F8080021
:102150000008F808203F210101213F2000000080F5
:1021600080000000000000FDFD00000000000000F5
:102170000000000000E3E3C3C3FFFF030000000012
:102180000000000000FFFF3C7E66E7C308F808007F
:1021900000000000203F20202020300000FEFEF83C
:1021A000E0F8FEFE007F7F0001007F7F08F830C06E
:1021B0000008F808203F200007183F00000000003A
:1021C00000000000007EFFC3C3C3FF7E00FEFE864A
:1021D0008686FEFC007F7F0101010100E0100808F7
:1021E0000810E0000F18242438504F0008F88888A1
:1021F00088887000203F2000030C30200000000081
:102200000000000000CEDFDBDBDBFB730000000022
:1022100000000000000303FFFF03030000FEFE00B8
:102220000000FEFE007F7F7070707F7F087888005E
:1022300000C83808000007380E010000F80800F850
:102240000008F800033C0700073C030008186880FA
:102250008068180820302C03032C30200838C80070
:10226000C83808000000203F2000000010080808BF
:10227000C83808002038262120201800000000FE61
:10228000020202000000007F40404000000C30C00D
:1022900000000000000000010638C0000002020239
:1022A000FE000000004040407F00000000000000F1
:1022B0000C12120C000000000000000000000000E2
:1022C0000000000080808080808080800002020406
:1022D00000000000000000000000000000000000FE
:1022E000000000003C424242427CE0C008F800800E
:1022F00080000000003F112020110E00000000802F
:1023000080800000000E11202020110000000080BD
:102310008088F800000E112020103F2000008080EF
:1023200080800000001F222222221300008080F003
:10233000888888180020203F20200000000080802E
:1023400080808000006B94949493600008F8008073
:1023500080800000203F210000203F2000809898CE
:10236000000000000020203F20200000000000802E
:102370009898000000C08080807F000008F800006E
:1023800080808000203F24022D302000000808F8C3
:10239000000000000020203F20200000808080807E
:1023A00080808000203F20003F20003F8080008010
:1023B00080800000203F210000203F20000080801E
:1023C00080800000001F202020201F0080800080CF
:1023D0008000000080FFA12020110E00000000807E
:1023E00080808000000E112020A0FF80808080006F
:1023F0008080800020203F2120000100000080809C
:10240000808080000033242424241900008080E090
:10241000808000000000001F20200000808000005D
:1024200000808000001F202020103F20808080003E
:102430000080808000010E3008060100808000804E
:10244000008080800F300C030C300F000080800073
:10245000808080000020312E0E312000808080009E
:102460000080808080818E7018060100008080804E
:10247000808080000021302C2221300000000000EC
:10248000807C020200000000003F4040000000008D
:10249000FF00000000000000FF0000000002027CBE
:1024A000800000000040403F0000000000060101E5
:1024B000020204040000000000000000DC24000808
:1024C00000000020980500001006000840260008C3
:1024D00098050020D004000050180008412D01028A
:1024E0000304040009340607080902040608281139
:1024F00080404020A090D018A8A808684828086804
:1025000002000936D81090202040C0801817C03033
:1025100098247221886C311B0A0504020201010112
:1025200081E1E1810700102E020204040B1A356AD2
:10253000903992C45830C03009F80720286D01FC4A
:1025400003101930783C1C1C0ECE6E76777F7F7F8F
:102550006F6F77373338381C1E1E0C1303FC062CA4
:1025600021244007F82B0F78894A0F8F180D80E03F
:10257000F8FFFFFF7F0F0301073F094CFCF080D1FC
:102580002A0F062A7806012B201201030C1830604E
:10259000CC810A040A0B1313232321234040001289
:1025A0003820232313130B0A040281C07830180C3F
:1025B0000301480B01010202040404050908010893
:1025C0000837040504060202015001551BFFFF03F2
:1025D0001BC3C3075F0303FFFF03031539121CFF6F
:1025E000FF1B01517808C3E3F3DBCFC7C3081EFF0D
:1025F000FFC0C0C023012A39F719541902012CA8C1
:102600000981C1A191898583810A3BFF8001091E4F
:10261000493A3CC3C903092F820954800928820919
:102620005680092682094D801D0408102007158157
:102630008181FF360101FF01013A9F030963803167
:0400000508000131BD
:00000001FF
